S32110180000007F0300028007010000000001000000F0030000000000C61A1B1C1D82
S3211018001C69010700031920220000000000000000000000000000000000000000CB
S3211018003800000000DEDEDEDEDEDEDEDEDEDEDEDEDEDEDEDEDEDEDEDEDEDEDEDEAE
S32110180054DEDEDEDEDEDEDEDEDEDEDEDEDEDEDEDEDEDEDEDEDEDEDEDEDEDEDEDE1A
S32110180070DEDEDEDEDEDEDEDEDEDEDEDEDEDEDEDEDEDEDEDEDEDEDEDEDEDEDEDEFE
S3211018008CDEDEDEDEDEDEDEDEDEDEDEDEDEDEDEDEDEDEDEDEDEDEDEDEDEDEDEDEE2
S321101800A8DEDEDEDEDEDEDEDEDEDEDEDEDEDEDEDEDEDEDEDEDEDEDEDEDEDEDEDEC6
S321101800C4DEDEDEDEDEDEDEDEDEDEDEDEDEDEDEDEDEDEDEDEDEDEDEDEDEDEDEDEAA
S321101800E0DEDEDEDEDEDEDEDEDEDEDEDEDEDEDEDEDEDEDEDEDEDEDEDEDEDEDEDE8E
S321101800FCDEDEDEDEDEDEDEDEDEDEDEDEDEDEDEDEDEDEDEDEDEDEDEDEDEDEDEDE72
S32110180118DEDEDEDEDEDEDEDEDEDEDEDEDEDEDEDEDEDEDEDEDEDEDEDEDEDEDEDE55
S32110180134DEDEDEDEDEDEDEDEDEDEDEDEDEDEDEDEDEDEDEDEDEDEDEDEDEDEDEDE39
S32110180150DEDEDEDEDEDEDEDEDEDEDEDEDEDEDEDEDEDEDEDEDEDEDEDEDEDEDEDE1D
S3211018016CDEDEDEDEDEDEDEDEDEDEDEDEDEDEDEDEDEDEDEDEDEDEDEDEDEDEDEDE01
S32110180188DEDEDEDEDEDEDEDEDEDEDEDEDEDEDEDEDEDEDEDEDEDEDEDEDEDEDEDEE5
S321101801A4DEDEDEDEDEDEDEDEDEDEDEDEDEDEDEDEDEDEDEDEDEDEDEDEDEDEDEDEC9
S321101801C0DEDEDEDEDEDEDEDEDEDEDEDEDEDEDEDEDEDEDEDEDEDEDEDEDEDEDEDEAD
S321101801DCDEDEDEDEDEDEDEDEDEDEDEDEDEDEDEDEDEDEDEDEDEDEDEDEDEDEDEDE91
S321101801F8DEDEDEDEDEDEDEDE6901070003192022000000000000000000000000FE
S32110180214000000000000000000000000DEDEDEDEDEDEDEDEDEDEDEDEDEDEDEDEC0
S32110180230DEDEDEDEDEDEDEDEDEDEDEDEDEDEDEDE1018000000007F0000030000FA
S3211018024CC6A9916C5152B7A0AE4BE94B66BE5E3A00000000DEDEDEDEDEDEDEDE29
S32110180268DEDEDEDEDEDEDEDEDEDEDEDEDEDEDEDEDEDEDEDEDEDEDEDEDEDEDEDE04
S32110180284DEDEDEDEDEDEDEDEDEDEDEDEDEDEDEDEDEDEDEDEDEDEDEDEDEDEDEDEE8
S321101802A0DEDEDEDEDEDEDEDEDEDEDEDEDEDEDEDEDEDEDEDEDEDEDEDEDEDEDEDECC
S321101802BCDEDEDEDEDEDEDEDEDEDEDEDEDEDEDEDEDEDEDEDEDEDEDEDEDEDEDEDEB0
S321101802D8DEDEDEDEDEDEDEDEDEDEDEDEDEDEDEDEDEDEDEDEDEDEDEDEDEDEDEDE94
S321101802F4DEDEDEDEDEDEDEDEDEDEDEDE72B67C46A41F15480021C9430160144864
S321101803100160144801608F480121FF3161188E4A0023CD58C5501B1D9A42FAD1CF
S3211018032C8C480121FF31611A08220023CD58C5501B1D9A42FAD18648C021611A56
S3211018034820220023CD58C5501B1D9A42FAD1044FB84700BF500021405400214076
S3211018036458002140010D0008000000000000000000000000000000000000000080
S321101803800000000000000000000000000000000000000000000000000000000033
S3211018039C0000000000000000000000000000000000000000000000000000000017
S321101803B800000000000000000000000000000000000000000000000000000000FB
S321101803D400000000000000000000000000000000000000000000000000000000DF
S321101803F000000000000000000000000000000000203A0008010318109135000867
S3211018040C8D350008591C0008591C0008591C0008591C0008591C0008591C0008EE
S32110180428591C0008591C0008591C0008591C0008591C0008591C000844202040D8
S3211018044489350008F5150008171600083D1600083F1600084116000843160008E9
S321101804604516000847160008491600084B1600084D1600084F1600085116000873
S3211018047C53160008DEDEDEDEDEDEDEDEDEDEDEDEDEDEDEDEDEDEDEDEDEDEDEDEF5
S32110180498DEDEDEDEDEDEDEDEDEDEDEDEDEDEDEDEDEDEDEDEDEDEDEDEDEDEDEDED2
S321101804B4DEDEDEDEDEDEDEDEDEDEDEDEDEDEDEDEDEDEDEDEDEDEDEDEDEDEDEDEB6
S321101804D0DEDEDEDEDEDEDEDEDEDEDEDEDEDEDEDEDEDEDEDEDEDEDEDEDEDEDEDE9A
S321101804ECDEDEDEDEDEDEDEDEDEDEDEDEDEDEDEDEDEDEDEDE13490A680F4B1A64C8
S3211018050812480F490860BFF34F8F0E490860BFF34F8F124E124FBD46124F81B05A
S321101805240097B545FBD10F4880F30888002080F31488BFF36F8F0D4FB8470D4F40
S32110180540B8470000000C000808ED00E02011204044202040000C0008002A0000F6
S3211018055C400800080008000820380008203A000805B1C1A5070F0008611600087A
S321101805780000000000000000000000000000000000000000000000000000000039
S32110180594000000000000000000000000000000000000000000000000000000001D
S321101805B00000000000000000000000000000000000000000000000000000000001
S321101805CC00000000000000000000000000000000000000000000000000000000E5
S321101805E8000000000000000000000000000000000000000000000000031C9B18F7
S321101806040160001D9842FBD1704700B500280AD14248810704D142490A1A9107EB
S32110180620890F00D0FEE7FFF7EBFF00BDF0B507463D493E4A00240C20012F0AD14B
S3211018063C0D46511A00F0CAFF84420FD2AA680646002A2FD020E0511A00F0C0FFB5
S32110180658844205D20124844202D201348442FCD33149324A00240C20012F3CD1AF
S321101806740D46511A00F0AEFF844241D20646AA68274F002A2DD023E06A690C35F6
S32110180690002A0DD022492868884202D32149884206D3810711D19107890F0ED1F9
S321101806ACFFF7A8FF0134B442EAD31F4A1D4D00240C20511B00F08AFF8442DBD303
S321101806C81CE0FEE76A690C35002A08D012492868884201D3B84202D3696800F0D8
S321101806E4E3FE0134B442EFD30AE0511A00F072FF844205D20124844202D20134B7
S321101807008442FCD3F0BD00B50120FFF78FFF0A490868400002D50020FFF779FFAB
S3211018071C00BD00BFE808000808090008141E0008801E0008801E0008801E0008DA
S3211018073800182640000000000000000000000000000000000000000000000000F9
S32110180754000000000000000000000000000000000000000000000000000000005B
S32110180770000000000000000000000000000000000000000000000000000000003F
S3211018078C0000000000000000000000000000000000000000000000000000000023
S321101807A80000000000000000000000000000000000000000000000000000000007
S321101807C400000000000000000000000000000000000000000000000000000000EB
S321101807E000000000000000000000000000000000000000000000000000000000CF
S321101807FC0000000030B501231B07994217D31F4CCB0514D1131C12D0234010D14E
S321101808181C4B5518013D9D420BD801252D07A84209D9984207D21518013D9D429F
S3211018083401D8044001D0102002E0144B00F065F830BD00B51049884205D2012110
S321101808500907884201D3410401D0102002E00C4900F01EF800BD0B4A01210904EC
S3211018086C106808431060094A106801221043074A1060074A01201060704700BFB5
S32110180888FF01000000000310203400080000244000F4244000102240F0B581B0B3
S321101808A40F46464E0968464C0B6800930A6801231A430A604349444D216060605D
S321101808C0FF203070204601F011FF002813D0A978082917D1204601F009FF0028FC
S321101808DC07D12068307005214907401A00D001200AE0A9780829EFD006E02068A8
S321101808F8307005214907401A00D001203968009A0A6001B0F0BDF0B586B004462D
S3211018091403A80D4634C01F461B680026186802901C68012004431C602849254C3D
S32110180930264D01910498BA683118019800F0B6FD244B059923607B686360731874
S3211018094C01991C48A360E160FF230370204601F0C7FE00281AD0AB78082B1FD116
S32110180968204601F0BFFE00280ED11349236805220B7052079342BB6801D100205E
S3211018098400E00120F618002810D012E0AB78082BE8D007E00949236805220B70AC
S321101809A05207981A00D00120BB68F618002802D103998E42BED33B680299196031
S321101809BC06B0F0BD04360008FC3A000800010014103600080C3B00080001000655
S321101809D830B5044CA360E271A171A08025680135256030BD08360008F0B50F4E9B
S321101809F40125012B346806D0022B14D10C4B2E07B04210D303E00A4E0A4BB04200
S32110180A100BD30F189F4208D2B24206D3AE18FF369E4202D8054BA0474540284630
S32110180A2CF0BD00BF40200017000003100000211008640017000000B50E4A106851
S32110180A480002000A03218907084310600B4A082010600B4A10600B4A1068072241
S32110180A64904303221043084A0121C907106010680843106000F00AF800BD00BFA8
S32110180A8000E400E080E200E000E100E0B480204030B583B05D4A10685D4A009063
S32110180A9C292410685C4A0190E40110685B4A02900020156800F0C0FF012000F023
S32110180AB8BDFF0098012210430090285101982C19FF21C9438843534908436060A5
S32110180AD4524C019002987F21090288430321490308430290285101F0EEF84D4A65
S32110180AF00020107003B030BDF0B58CB0174602931D46494B494C1A680B920022DC
S32110180B0C22706278002A15D103AACEB2314600F07FFE1298119B01902A46380182
S32110180B280090314603A800F0AAFD3D4824780B99026891420BD008E00020607085
S32110180B440220207024780B991A68914201D000F0C1FC20460CB0F0BDF0B587B0F7
S32110180B600D4616461F463049304C0A680692002222706278002A11D102AA1021C1
S32110180B7C00F04EFE009732462B01102102A800F08CFE26482478069A03689A4272
S32110180B980BD008E000206070022020702478069A0B689A4201D000F093FC20466D
S32110180BB407B0F0BD10B581B0164A1C4C11680A59009264181207120F08239A1AD2
S32110180BD0904206D9216800910907090F591A8842F8D801B010BD81B00B4A10685F
S32110180BEC104A815800911218090703D0106800900007FBD101B070470949012038
S32110180C0808707047782C00087C2C0008802C0008782B000800801040881400004C
S32110180C241536000860350008143600084410000000B501F054FC00281BD10E4A8E
S32110180C400E491068084001218905084310600C4A042010600B4A10600B4A10686C
S32110180C5C0722904302221043084A0121C907106010680843106001F09EFD00BDAB
S32110180C7800E400E0FFFF00FF80E200E000E100E00080204030B51E4C1E4A1F496F
S32110180C942068C50F1E481368834202D10B68834206D0106008601B4A1B48002172
S32110180CB000F0E1FB2068C00F012D0CD001280AD12068002807D521680122D207B8
S32110180CCC9143216021680029F7D430BD4178C9430078C9B2884201D0002000E0CC
S32110180CE8012070470170C94341707047014602780020002A03D14978002900D16B
S32110180D04012070470C002140C0080008E4080008B89FA28A20000000C408000825
S32110180D2030B500210A462E4D835CAC5CA34200D001210132D2B2072A01D2012915
S32110180D3CF4D1084630BDF0B585B0074626490868049001260024254AA00085589C
S32110180D5828461030FFF7E0FF002816D16846042100F022FC10226946284600F09F
S32110180D7472FB00280BD0E86929462031884206D3A96949190439884201D83C7011
S32110180D9000260134E4B2062C01D2002ED9D1114804990268914201D000F096FBC6
S32110180DAC304605B0F0BD30B581B005460124684603300021FFF7BFFF002807D1E9
S32110180DC86A46D1780648890008580024C0692860204601B030BD00BF2C340008B1
S32110180DE46035000834340008002070477047704700B51749086800280AD5086877
S32110180E00800502D000F0DEF804E001F0F2FE12490420086000BD00B510490868A4
S32110180E1C00280CD508688005800D2D2802D000F0CBF804E000F054FF0849082087
S32110180E38086000BD704770477047704770477047704770477047704770477047B7
S32110180E540811204080E200E00C11204000B585B0FFF712FF00F056FA00F0C2FA3F
S32110180E700A4A0B491068000A00021060106808401060084A0120106002201060F7
S32110180E8C064A0120106002201060FFF7E6FC07E000E400E0FF00FFFF80E200E0E7
S32110180EA800E100E062B6FFF7C1FEFFF7C6FD0C4A0120800710600B4A0B4910682A
S32110180EC488420BD168460021FFF771FF002805D1074900980860074907480860B4
S32110180EE000F043F9FEE700BF900022401C0900174B657937000220400012204096
S32110180EFC0300FA0570B51C4B1C4A01201968914226D11B4A4B239B015169CB1840
S32110180F18194984030D68002D03D455695D1B2540F8D0CD69002D03D455695D1B5A
S32110180F342540F8D0CD69002D0FD5114DCD6020258D60104DCE68AE4203D056692D
S32110180F509E1B2640F8D0C968A94200D1002070BD0A490868002804D5094A1068A7
S32110180F6C000C0004106070471C0900174B65793720802640E000224048534D3107
S32110180F8846424C32FC002240E4002240F0B506460F4600250124FFF7AFFF002819
S32110180FA404D1E8038019FFF74CFC0446FFF7D6FF0135E803B84201D2002CEDD080
S32110180FC02046F0BD10B583B08B488C4A031F1968914200D0002001210843012837
S32110180FDC00D08047FEE70000F0B589B003901746844802680892864B0291002528
S32110180FF81A6804925A6805929A680692DB6807937F4E0196029804AB2918009148
S32110181014202203981021FFF76DFD002808D1041C1AD08021304600F0C1FABD4258
S3211018103034D335E00124FFF7C5FF8021304600F0B7FABD422AD32BE00124FFF7A1
S3211018104C89FF8021304600F0ADFABD4220D321E0FFF750FF0028F1D1012252028B
S321101810680121090769183046FFF7C6FB0028E7D1FFF772FF012149026D18BD4226
S3211018108406D2029810222B18991A04A800F00CFA01F0B8FDBD4201D2002CB4D0BE
S321101810A08021304600F084FA554808990268914201D000F011FA204609B0F0BD6E
S321101810BC30B585B005464F49086804905149684601240A6800924A6801928A6841
S321101810D80292C96803914D4910220C3100F0E2F94B484C4A031F1968914200D036
S321101810F40020002815D02B466A462146FFF72CFD002806D104463D480499026809
S3211018111091420FD00CE0FFF755FF394804990268914207D004E036480499026812
S3211018112C914201D000F0D2F9204605B030BD10B5384C2046FFF7CAFD012809D1A3
S321101811482078411CC9B22046FFF7CCFD2078052806D3FEE720460021FFF7C4FD07
S32110181164FFF72EFF10BDF0B58CB0244908680B902B4927480B6803934B680493C2
S321101811808B680593C968069101880A06090A0D041543827812021543C278818814
S3211018119C15430A06090A0F041743827912021743C279018917430A06090A0C0466
S321101811B81443827A1202C07A174E144304433046FFF794FD012803D130460021B8
S321101811D4FFF78AFD064B13481968C90400D4124812498D4200D281E079196118C4
S321101811F001311FE000002440A40800174B6579356035000800000000183600080C
S3211018120C5C3400086C340008400800083C0800174B657931D40800087C340008B7
S32110181228008010100000211000000310FF3181425AD2FFF77EFF03A8FFF73CFF2A
S32110181244002853D107A92F487F191C350246103203780B7043784B7083788B7018
S32110181260C378CB70043004318242F3D1274A00970292019207AB1922102103A8E5
S3211018127CFFF73CFC002809D0FFF79EFEFFF79CFE204A0B981168884235D032E070
S3211018129808228120029BFF301918284600F0D9F8002821D101F0ACFC21460120DA
S321101812B40007FFF76DFE002818D101F0A3FC2246394603A8FFF78CFE00280FD1CD
S321101812D01048221A0120FF30211A012000070223FFF786FB002803D1304600215E
S321101812ECFFF7FEFCFFF768FE064A0B981168884201D000F0EBF80CB0F0BD00BF6A
S321101813084C3400081836000860350008000100F010B53C493C4C3D4A08683D4BDE
S32110181324116822681A4003239B051A4322603A4C40222260394C2260394C2268FD
S321101813400724A24306242243364C0123DB07226022681A432260344C2268032420
S3211018135CA24301242243314C226022680324A243022422432D4C22602D4C2268BA
S321101813789A4322602C4C22680324A2432A4C22602A4C2B4B22689A432260626827
S321101813949A4303239B031A436260274C002222606060264C0120C00322606060E0
S321101813B0244C2068000C00040122D203104320606160214C2068022420431F4C76
S321101813CC20601F4C2068022420431D4C01212060134CC907206808432060104CF2
S321101813E82068032420430E4C206010BD16490120086002200860154900200860AA
S3211018140412490320086070478C34000804E400E090340008FFFF00FF80E200E066
S3211018142000E100E03480204090802640008026404080264004802640FFFF000043
S3211018143C0C802640248026402C802640A0802640A880264040C0264000C02640B8
S32110181458FEE720B50023002A06E0037801300D7801315B1B01D1013AF7D1181C7B
S3211018147420BD8446830704D0013A13D301700130F8E7083A08D309060B0A1943EA
S321101814900B0C19430B1C0AC0083AFCD2083203D001700130013AFBD1604670478B
S321101814AC01B4031C0B4313439B070AD1121F0ADB08C908C0121FFBDA05E00B78E4
S321101814C8491C0370401C521EF9DA01BC7047000020B583B0172203A1022000F0F8
S321101814E451F8012000F00CF8537461636B2063616E61727920636F72727570749D
S3211018150065640A0060B582B0061C00F049F80A490D6803E0286800F0B5FF6D6880
S3211018151C002DF9D10648002801D0C046C04600F03AF8311C022000F005F8FEE7D8
S32110181538183800080000000080B5074FBC467F46FF1DBE460027604702D300F00C
S3211018155427F8F84380BC08BC1847C046811E000880B5074FBC467F46FF1DBE4675
S321101815700027604703D300F015F8F843F94380BC08BC1847811E000800B5131C2F
S3211018158C0A1C011C0248FFF7E7FF00BD00000000010004007047704701490860CA
S321101815A87047000000360008E0B5CA084907490F0023002A06D01D1C1E1C1F1C24
S321101815C4E8C0E8C0013AF8D1002902D008C00139FCD1E0BD60B400230125021CA7
S321101815E004D10B4A002A10D060BC1047914207D3891A5B194E08B242F8D25200F0
S321101815FC6D00F5E7012D02D052086D08F0E7181C60BC7047000000000036000871
S32110181618000000000000000000360008000000001C0200001C38000800000000D0
S3211018163400000000203A00080000000000000000203A00080000000000000000A8
S32110181650203A00080000000010000000303A00080000000000000000303A0008FA
S3211018166C0000000000000000783A00080000000084000000C04670470000F0B594
S3211018168884B006460D46039317465B4A1031C906106803229043890F584A0843A8
S321101816A41123009012681B020192D0500520FFF781FA544C4C4B019A1920D45029
S321101816C0D650D5508006D05050482843D0500420FFF772FA454B019A601CD0507F
S321101816DCD7501020D0504B480999D05009090D0102910620FFF762FA3D4A019BAA
S321101816F899189C50039A0A603A4A201D9D5098500A9A0A60374A0298C0080390EA
S321101817149D5048D0364DD41851263606334F0420FFF748FA276033492660256078
S3211018173021600420FFF740FA27602F492660256021600420FFF738FA27602B49C8
S3211018174C2660256021600420FFF730FA276027492660256021600420FFF728FAC4
S32110181768276023492660256021600420FFF720FA27601F492660256021600420E5
S32110181784FFF718FA27601B492660256021600420FFF710FA276017492660256086
S321101817A02160039901390391BBD1029845076D0F10D00E4C019824180420FFF7FD
S321101817BCFDF90C4820605120000620600A4820600A48013D2060F1D10120FFF767
S321101817D8EFF9044A074801998850FFF700FA04B0F0BD00BF481000000800004020
S321101817F412C00041002000400C00007218260008782B00080800007000400066AB
S321101818100920004000000000000000BFF0B581B006460C461746184A1031C90623
S3211018182C106803229043164A890F08430090156811221202A8500620FFF7B8F9A6
S321101818481149124868506E506C50043068506F506C500520FFF7ACF90B491920BC
S32110181864800668500B482043685005200007685009482043685009486850FFF73F
S32110181880B2F901B0F0BD00BF28260008782B0008481000000800007000400066DF
S3211018189C006000670C0000720000F0B584B007460D4603921E460B4A1031C906E6
S321101818B8106803229043890F084A08431123009012681B020192D0500520FFF718
S321101818D471F9054C034B019A10E000BF2C260008782B00084810000008000070A2
S321101818F00040006601C00040080000400C0000721920D450D750D5508006D050F2
S3211018190C38482843D05031090D0102910620FFF74DF9354A019B99189C50039AF4
S321101819280A60324A201D9D509850099A0A602F4A0298C00803909D5038D02D4D93
S32110181944D418512636062C4F0320FFF733F92760266025600320FFF72DF92760A2
S32110181960266025600320FFF727F92760266025600320FFF721F9276026602560A2
S3211018197C0320FFF71BF92760266025600320FFF715F92760266025600320FFF790
S321101819980FF92760266025600320FFF709F9276026600399256001390391CBD1B8
S321101819B402984407640F0ED00D4D01982D180320FFF7F8F80C482860512000061F
S321101819D028600948013C2860F3D10120FFF7ECF8044A074801998850FFF7FDF876
S321101819EC04B0F0BD004000664810000001C00040080000400C000072000000008B
S32110181A0800000000000000BF000000BF000000BF00000000000000000000000057
S32110181A2400000000000000BF00000000000000BF10B587B0574B1968574B0091A8
S32110181A401968574B01911968564B02911968564B03911968554B049101221968E2
S32110181A5C544B0591120419680691009911430122D2079143C20711434F4A0091D9
S32110181A784F4C1160116801992160029903242143029191600399890A8902962367
S32110181A9419430391D160059901242143464C05912160069901242143444C0691C8
S32110181AB00128216007D100F077F9424A0121090410688843106007B010BD84B0E4
S32110181ACC3E4A11683E4A009111683E4A019111683D4A029111680391009A3C4964
S32110181AE8520E52060A43032109070A4339493F230A60019A9A4383069B0E1A43D9
S32110181B048A600298354AC00FC007104308620398334AC00FC0071043486204B0E2
S32110181B20704781B0304A022301281168009103D108430090184304E001208143EE
S32110181B3C0091994308462A4B186001B0704782B0284A1168284A00911068019026
S32110181B58274803229143016001AA1F211170019901612449016202B0704781B0A8
S32110181B74224A01281168009103D108463F21084300900C490098086001B070476E
S32110181B9000000000000000BF802B0008842B0008882B00088C2B0008902B0008A5
S32110181BAC942B0008982B0008000010408402104000211040202110404010104095
S32110181BC89C2B0008A02B0008A42B0008A82B0008F9000001800210401019F82171
S32110181BE421026F69AC2B0008C8021040B02B0008B42B0008C00210402E00320087
S32110181C00B82B00080000000000000000000000000000000070B583B032490C6868
S32110181C1C0D21FF316658314900960296086830400BD008200121FF31019008519B
S32110181C3808592C4902980D68284040D008E0300701D500F07FF8274930460D684E
S32110181C54284036D002998A0702239843D20F52001043CB03012212049043DA0F63
S32110181C70120410438B03012252049043DA0F520410434B03012292049043DA0F92
S32110181C8C920410430B030122D2049043DA0FD2041043CB02012212059043DA0F76
S32110181CA8120510438902012252059043CA0F52051043FEF7A3FF0120FF302550D1
S32110181CC4205803B070BD064A09231068074AFF331168C150C058704700B5FFF703
S32110181CE099FF00BD782B0008BC2B0008C42B0008C02B00080000000000000000E1
S32110181CFC00000000000000BF0000044A35211068014A4906815070474810000049
S32110181D18782B00080000044A6B211068014A09068150704748100000782B00089F
S32110181D340000044A1B211068014A89068150704748100000782B000830B582B0E7
S32110181D502D492E4B082201921C680123FF3308681A511A59052810D25322D2001F
S32110181D6CA3588200274D013008605351264A29210901106801221043009060500D
S32110181D880CE00020FFF7C9FE0020FFF7EEFE0922FF32A058082188431051105934
S32110181DA402B030BD10B582B0164A00201060164A14680922FF32A058082188434B
S32110181DC00090105110592020FFF77FFE0020FFF7A8FEFFF7BAFE0120FFF7CBFE82
S32110181DDC0120FFF7A0FE0922FF32A05808210843009010511059084A2921090140
S32110181DF81068019001221043605002B010BD0000E43A0008782B0008E83A0008F8
S32110181E14742C00080000000080000000000000000000000000000000000000005C
S32110181E300000000000000000000000000000000000000000000000000000000167
S32110181E4C43590053444B4456000000804445565F5345435F4B45595F54455354B4
S32110181E6800000000FFFFFFFFFFFFFFFFFFFFFFFF0000000000000000000000003C
S32110181E8401000000FFFFFFFFFCFFFFFFFFFFFFFFFFFFFFFF000000000000000026
S32110181EA00000000001000000FFFFFFFF4B60D2273E3CCE3BF6B053CCB0061D65D7
S32110181EBCBC86987655BDEBB3E7933AAAD835C65A0300000000000000FFFFFFFF52
S32110181ED8FEFFFFFFFEFFFFFFFEFFFFFFFFFFFFFF0000000001000000512563FCFD
S32110181EF4C2CAB9F3849E17A7ADFAE6BCFFFFFFFFFFFFFFFF00000000FFFFFFFF4F
S32110181F10FE9BDFEE85FD2F01216C1ADF52051943FFFFFFFFFEFFFFFFFFFFFFFF43
S32110181F2C000000000100000096C298D84539A1F4A033EB2D817D0377F240A463F3
S32110181F48E5E6BCF847422CE1F2D1176BF551BF376840B6CBCE5E316B5733CE2B45
S32110181F64169E0F7C4AEBE78E9B7F1AFEE242E34FFFFFFFFF0000000000000000C6
S32110181F80FFFFFFFFFEFFFFFFFFFFFFFFFFFFFFFFFFFFFFFFFFFFFFFFFFFFFFFF34
S32110181F9CFFFFFFFFFFFFFFFFFCFFFFFF0000000000000000FFFFFFFFFEFFFFFF13
S32110181FB8FFFFFFFFFFFFFFFFFFFFFFFFFFFFFFFFFFFFFFFFFFFFFFFFFFFFFFFFFB
S32110181FD4EF2AECD3EDC8852A9DD12E8A8D3956C65A8713508F081403124181FEBB
S32110181FF06E9C1D18192DF8E36B058E98E4E73EE2A72F31B301000000FFFFFFFF0F
S3211018200CFFFFFFFF0000000001000000000000000000000000000000000000008D
S32110182028000000000000000000000000010000007329C5CC6A19ECEC7AA7B048CC
S32110182044B20D1A58DF2D37F4814D63C7FFFFFFFFFFFFFFFFFFFFFFFFFFFFFFFF02
S32110182060FFFFFFFFFFFFFFFF8DD63A3395E6131385584FB74DF2E5A720D2C80B5A
S3211018207C7EB29C3800000000000000000000000000000000000000000000000016
S3211018209801000000B70A7672385E543A6C2955BF5DF20255382A5482E041F75938
S321101820B4989BA78B623B1D6E74AD20F31EC7B18E37058BBE22CA87AA5F0EEA9074
S321101820D07C1D437A9D817E1DCEB1600AC0B8F0B51331DAE97C149A28BD1DF4F892
S321101820EC29DC9292BF989E5D6F2C26964ADE173617000000000100006C260008B1
S321101821088C260008AC260008CC260008F0260008102700083427000854270008BC
S32110182124180000008001000074270008A4270008D42700080428000838280008C3
S32110182140682800089C280008CC2800080E0D090A08060C07A3785913CA4DEB75A8
S3211018215CABD841414D0A700098E879777940C78C73FE6F2BEE6C0352B0A00E4A8F
S32110182178271BEEC478E42FAD0618432FA7D7FB3D99004D2B0BDFC14F8024832B4E
S32110182194853B8CF5C693BC2F190E8CFBC62D93CFC2423D6498480B2765BAD4339C
S321101821B03A9DCF073E9140D70539109DB3BE40D1059F39FD098A8F683484C1A563
S321101821CC6712F898922FFD4468AA7A870512C9AB9EC4AACC23E8D9268C5943DD39
S321101821E8CB7D1B5AA8650C9F687B116F3097EE4CA8B025AF8A4B86E830845A0255
S321101822043267019F02501BC1F4F8809A1B4E167A65D2FCA4E81F61567DBAC1E5B8
S32110182220FD53D33BBDD64B211AF3318162DA5B558715B92A89D8D00D3F93AE141B
S3211018223C62DA351C222394584CDBF28C45E570D1C6B4B912AF26285A33BBA50853
S3211018225844BC12A202ED5EC7C348508D44ECBF5A0CEB1BDDEB06E246F1CC452910
S32110182274BAD647A4C382917FB729274BD11400D587A064B81CF13CE3F3551BEB87
S32110182290737E4A1585822A81F1DBBBBCFCD1BDD007080E272DA7BD1B0B671BB434
S321101822AC9AB63B6B69BEAA43BFA34E94D05C1A6BD2C09DB33A357074492E5428C1
S321101822C88252B2717E923C2869EA1B46B12132AA9A2C6FBAA723BA3B5321A06CD1
S321101822E43A2C19924F76EA9DE017532E5DDD6E1DA2B3B801C86D83F19AA43E05DE
S32110182300475F03B3F3AD7758BA419C52A7900F6A1CBB9F7AEDD3F55C1A63125847
S3211018231CD69CF7A2DEF9DE140000000000000000000000000000001059F1B22671
S32110182338949BD6EB56B183829A14E00030D1F3EEF2808E19E7FCDF56DCD90624DF
S321101823541B132C0AA3E59CEDA72963085D210621EBFFFFFFFFFFFFFFFFFFFFFF0A
S32110182370FFFFFFFF0F0000000000104000002C400000000000000000000000005C
S3211018238C0000000000000000000000000000000000000000000000000000000007
S321101823A80000000000000000000000000000000000000000000018000A003F008A
S321101823C402003F00090A0B0C0D0E0000090A0B0C0D0E000013000000EDFFFFFF07
S321101823E0FFFFFFFFFFFFFFFFFFFFFFFFFFFFFFFFFFFFFFFFFFFFFFFFFFFFFF7F4F
S321101823FC010453484500800000000000000000B0000000006A09E667BB67AE856D
S321101824183C6EF372A54FF53A510E527F9B05688C1F83D9AB5BE0CD196A09E6677D
S32110182434F3BCC908BB67AE8584CAA73B3C6EF372FE94F82BA54FF53A5F1D36F1CF
S32110182450510E527FADE682D19B05688C2B3E6C1F1F83D9ABFB41BD6B5BE0CD19F9
S3211018246C137E217906800000000000000000000000000000000000000047DEDE72
S3211018248800B5FEF7A5FA00BD00B500F0B9FB00BD704700B5FEF7A6FC00BD00B579
S321101824A4FFF7F4FF00BD00B5FFF7F4FF00BD00B5FEF79CFC00BD00B5FEF799FCAF
S321101824C000BD000032490878704732490878704730490870704730490878704759
S321101824DC2E490870704730B581B02D4A0124156800F092F80021002806D02B46D7
S321101824F8FF202246FFF7C4FF204641E0072000F080F8072000F06FF8002000F0B6
S3211018251484F80090810505D1204901430091002000F07FF8204600F078F80090FA
S32110182530810505D11A4901430091204600F073F8022000F06CF80090810505D1AA
S3211018254C144901430091022000F067F8032000F060F80090810505D10E490143B0
S321101825680091032000F05BF8074C03214904002000F047F800206070A0700120FE
S321101825842070002001B030BD00000000203A0008213A0008223A0008B8340008A2
S321101825A0FF03000022494001405870470000204A40018018816070471D4A400171
S321101825BC8018416070471B4940014018C06870470000184A40018018C1607047F6
S321101825D80000164B4901CB180121002A00D109048140196070471149400140181D
S321101825F40021C9430160704700000D4940014018C068704700000A4A400180185D
S3211018261081607047084908680005000F70470749800040587047054A800081509D
S3211018262C704700BF00002240001022400000204040112040F0B582B005460F4692
S321101826488949012201920E680020FFF7A7FF009000280DD4FF20000486430120E8
S32110182664C004064333463A46FF200021FFF70AFF019837E029460020FFF7A7FF0C
S321101826800120FFF725FF01210020FFF790FFFFF71CFF01280BD16324FFF717FF65
S3211018269C0546012802D0002820D004E0013CF5D101E0051E1AD00020FFF70CFFA0
S321101826B8012D14D1002211461046FFF78AFF00210846FFF775FFFF2000048643B2
S321101826D409200004064333463A46FF200021FFF7D1FE019802B0F0BDF0B581B07A
S321101826F00746604901250C68FFF7E4FE009000F07CFA0646FFF7E7FE0099012958
S3211018270C0CD0FF20000484432804044323460F22FF200021FFF7B2FE284642E03A
S32110182728391C0CD1FF200004844303200004044323460F22FF20FFF7A3FE28461F
S3211018274433E001280DD0FF200004844307200004044323460F22FF200021FFF706
S3211018276093FE284623E0022E0DD1FF200004844305204004044323460F22FF20CC
S3211018277C0021FFF783FE284613E0032E0DD1FF20000484430B2000040443234642
S321101827980F22FF200021FFF773FE284603E00F213846FFF749FF01B0F0BDF0B5DF
S321101827B4304A01241568FFF783FE074600F01BFA0646FFF786FE012F0CD0FF2005
S321101827D000048543200405432B461222FF200021FFF752FE204641E0022E0DD1C7
S321101827ECFF20000485430520400405432B461222FF200021FFF742FE204631E075
S321101828080146032E0DD1FF20000485430B20000405432B461222FF200021FFF7F3
S3211018282431FE204620E00020012905D107210904FFF7E9FE002017E02104FFF771
S32110182840E4FE0E481221FFF7FBFE041E09D13846FFF744FE072109040020FFF7F7
S3211018285CD6FE204604E000210846FFF7D0FE2046F0BD0000F4340008F83400086A
S32110182878FC3400080100002E000010B50446BC4815220368FF200021012C21D19B
S32110182894B94B03241C7001231B068124A4002343092424042343FFF7EDFDB149BA
S321101828B00868411C12D0B249FFF789FEAD4B002211461868FFF789FEAA4BFF2134
S321101828CC1868FFF773FEFFF7F2FD03E0FFF7D6FDFFF7EDFD10BD10B50446A7489F
S321101828E814220368FF200021012C21D1A14B02241C7001231B068124A400234314
S32110182904092424042343FFF7BDFD99490868411C12D09A49FFF759FE954B00225B
S3211018292011461868FFF759FE924BFF211868FFF743FEFFF7BEFD03E0FFF7A6FD68
S3211018293CFFF7B9FD10BD00B59049012802D18C49087005E00B681622FF20002131
S32110182958FFF796FD00BDF0B587B08A480026834D01680391416804918168059191
S32110182974C068019606900127F043286003AC3046FFF73BFE6A4600905388180654
S3211018299014D03A463146204614461C4007D007782960012601300131082905D394
S321101829AC06E0520001300131082901D2002EEDD002972E68002F05D13046FFF7B7
S321101829C8FCFD01908707BF0F6A4CFFF77AFD2178022901D003291CD16B48012337
S321101829E41B0603430920000403430A22FF200021FFF748FD2868411C00D1F6E094
S32110182A006449FFF7E4FD286800221146FFF7E5FD2868FF21FFF7D0FDE9E0029950
S32110182A1C012903D0002E1ED101281CD05B4801231B0603430920000403430A2274
S32110182A38FF200021FFF724FD2868411C00D1D2E05449FFF7C0FD28680022114634
S32110182A54FFF7C1FD2868FF21FFF7ACFDC5E00198002808D0022F06D0002F21D1CF
S32110182A7001200199800781421CD3494801231B0603430920000403430A22FF204E
S32110182A8C0021FFF7FBFC2868411C00D1A9E04249FFF797FD286800221146FFF797
S32110182AA898FD2868FF21FFF783FD9CE0002E4FD10220FFF709FD0220002F4CD0D4
S32110182AC401990F0E02280AD04CE0012807D0019928680022FFF7DFFC3249002821
S32110182AE068D1FFF7DEFC0020207027713107090F15225201114301225203114361
S32110182AFCE18000F049F92078FFF7D1FC2078012804D1301C6DD1FFF7DDFC6AE069
S32110182B182078002867D101231B068120800003430920000403430A22FF200021F0
S32110182B34FFF7A8FC2868411C57D01049FFF745FD286800221146FFF746FD286846
S32110182B50FF21FFF731FD4AE00020002FB2D1019A11680F0E0228BCD03F2FB2D81C
S32110182B6C0F48C05D02281DE06435000804350008243A0008040200F00835000801
S32110182B880C3500081035000803020000030200F005020000050200F0060200006D
S32110182BA4060200F002020000203500088DD113490C4601231B060B4309200004C2
S32110182BC003430A22FF200021FFF75EFC2868411C0DD00F2109072143FFF7F9FC70
S32110182BDC286800221146FFF7FAFC2868FF21FFF7E5FC07B0F0BD00B5FFF7B3FE73
S32110182BF800BD02490878704701020000243A00080449012008600220086001206A
S32110182C1448600320086070479080264000F4244009000000000200008AA29FB830
S32110182C30EA7BC50000000310008003100000041000800410000005100080051038
S32110182C4C000000000000000000000000000000000000000000000000000000003E
S32110182C680000000000000000000000000000000000000000000000000000000022
S32110182C8400000000000000002200001000110010000000000000000000000000B3
S32110182CA00000000000000000AC340008943400089C340008A43400080000060074
S32110182CBC00000300000000000000000000000000000000000000000000000000CB
S32110182CD800000000000000000000000000000000000000000000000000000201AF
S32110182CF40000000100000000000000000000010000000B0100000A010000090173
S32110182D10000000010101010101010101010101010000000000000000000000006C
S32110182D2C0002000000000000000000000000000000000200000000000000000257
S32110182D480200000000000002000000000000000000000000000000005CA231DB33
S32110182D64FFFFFFFF00201C4B9D4509DC194B9D4506DB204B1B6883F30888BFF30E
S32110182D806F8F0120104700BF1A4AEDE7184AEBE7164AE9E71248194A1168F0B45E
S32110182D9C44464D4656465F46F0B4144B6C460722D24314402022A41A1C600B4B76
S32110182DB801241C601C681C68094B01241C601C68F0BCA046A946B246BB46F0BC89
S32110182DD4704700BF00000008FF0700085359534300E200E080E200E08330000828
S32110182DF0E3300008433100082C3A0008283A0008DEDEDEDEDEDEDEDEDEDEDEDEC2
S32110182E0CDEDEDEDEDEDEDEDEDEDEDEDEDEDEDEDEDEDEDEDEDEDEDEDEDEDEDEDE34
S32110182E28DEDEDEDEDEDEDEDEDEDEDEDEDEDEDEDEDEDEDEDEDEDEDEDEDEDEDEDE18
S32110182E44DEDEDEDEDEDEDEDEDEDEDEDEDEDEDEDEDEDEDEDEDEDEDEDEDEDEDEDEFC
S32110182E60DEDEDEDEDEDEDEDEDEDEDEDEDEDEDEDEDEDEDEDEDEDEDEDEDEDEDEDEE0
S32110183218DEDEDEDEDEDEDEDEDEDEDEDEDEDEDEDEDEDEDEDEDEDEDEDE000000009C
S321101832340000000007250008102C00082040200008000000000000000000000050
S321101832501F250008302C0008408040001000000000000000000000003725000810
S3211018326C000000000088200001000000DEDEDEDEDEDEDEDEDEDEDEDEDEDEDEDE8F
S32110183288DEDEDEDEDEDEDEDEDEDEDEDEDEDEDEDEDEDEDEDEDEDEDEDEDEDEDEDEB4
S321101832A4DEDEDEDEDEDEDEDEDEDEDEDEDEDEDEDEDEDEDEDEDEDEDEDEDEDEDEDE98
S321101832C0DEDEDEDEDEDEDEDEDEDEDEDEDEDEDEDEDEDEDEDEDEDEDEDEDEDEDEDE7C
S321101832DCDEDEDEDEDEDEDEDEDEDEDEDEDEDEDEDEDEDEDEDEDEDEDEDEDEDEDEDE60
S32110187EFCDEDEDEDE55E49474CD74A1F2A218D2D870977BB764711A70F5D59BFF4F
S32110187F18663FAFFD68F424DB2BEE55A010DC683D02B8D5E61F778466C80E3511C3
S32110187F344C55EA5D3B7E3B1247F67120007CC8BBC591FE2C56D6D6A93A44EFBCF4
S32110187F50DEDD5E5882686E62655E7101EEBBADF07DFE101473B3EF596F864A47AE
S32110187F6CD9345E6B1140C2057B44E147786D747F2ACEFF362B88DCC532E70087FD
S32110187F88E857C7DC67C24C7CB90D04FBCEEC21D5535BB09B5CD383733FA2B3FFB6
S32110187FA4132FD0B29D6A31D8D9E044130E3A2442A9FFF54348BDB642711CF9C7D7
S32110187FC0BDD42F2BDAA1727908A57C77005C13E653C550CF9FBFDD7CE8A4DF597F
S32110187FDC64D2B3102E8FCFA36C604300D6E770C18F9EBBA103AA2815940EA60E6D
S32110187FF8381A7E052429F7F0826DC74A1F1C241E73E5CAE37D6F002B928B431C21
S32110188014578C0203ECE96DF87C6D217A3BFCA8702712F936DB39AA5B7E4CC752C9
S321101880306DA2EA4A0693D9FA539B5AB155CCD9821E864D6DEE4B73149B9C887C89
S3211018804C69658D293A0AEBAF1863E73ECA1E07D3E8FC465E5A34948EDB2B5C6725
S32110188068AFC05D3DA495555322D4843184436FEA491C9C9712341E16C920996025
S321101880841B98F5E8FB7BB48FBEC778F9FFE10AFA59C535B786715432914AA81F66
S321101880A0D3AC3845D792AA5906B8023F9B818348DEA304C7DDCD68543F732D2E89
S321101880BC798B5B50EA4AA11D30AC034C221ACDA25B9C5C5770F497B8F3E0A86EBD
S321101880D828627236AA311EDD41AF2AC58C6BE78092E717B6BCC842F3359FA6168A
S321101880F446A8D58516B4DBF0DBDB59547D315CCB2B57596024ED48A475F7B5973D
S3211018811000946209BCF5AFBB1FEBA7C5033F10870C166E53EF24B8A915D573FA0E
S3211018812C126BDA816E4454DE1B77BF261ECE949C6B30BB5EBB371C83656A7277BD
S32110188148EC479AB4B78CF591795C196A428543F95ADF4D12DA4A38F8A7499DC20D
S32110188164BBFD3D05261A826384FE333D80CDAA1238BC48754284AC08A5249A6DBC
S32110188180486F6846738602DE7D1C418B540B5120251B893F86D1E78C410F26FA00
S3211018819C32C7207D8DA64F6E1102D817896DD673A9F5F918D02C44A80002A8642D
S321101881B80E6449E560192053F1E998D1C845B9DCCA2AA1BE6D0A484EDF14BBCB33
S321101881D4449971E0D671A90C8CE5FA9571A267497C6273F17F2E1A169A075AA9B1
S321101881F08BB891CA11AEFF19AF6CED2D50AAA25178BCA5984B4C254927F9C8A2AE
S3211018820C67C52357AD157FB591CED13075B2B675D718AFC1D58997A626BF775E26
S32110188228F96E030045770328B2DD280155D44F85996F785828434EB8904ECFA070
S32110188244FED5FEF160D6C894EE7AE382C2321BC501504C92AD85696ECA66634EE2
S32110188260EFC941B7B4A0EC4416B90304463EE12993B7291B7AEED05032ADF7E66A
S3211018827C04BDC05E776DEF147ECA49ABE2B09D765B31B1D4EE2A8FCFC80F5F3F15
S3211018829825320FEEEF56C3071E429CC770AEC583AD6C0B02E150DC838CFBD76993
S321101882B434CA61A9AFD5AC30B4EF7B8BEE7E66F76511E425C264381C0A5F505A9A
S321101882D00BECB49795BE2175E5880F4CDD0F667CD45FC71208FAB8AD0A786DB988
S321101882EC880EB93BCB9363F0D652887DC22FD5DEAEC2270C530273FB2383E751F8
S32110188308612549D421200BC642161012D1223DDBBCCEE9059B5F08C263394B9A34
S321101883246C4938B48A755A1CD3BA31447132E92AE6A8C8868D5CAC3135196D40A4
S32110188340CFF2245068EA53A31E807BE900CB92EBDDF0963EA0FB793F9E3475C22F
S3211018835CF9E5EAB3BED98CF08C401CA758F86CA0E6F34A8485EBE043E5D7709761
S32110188378F88C2F682942CBF9E45D042D2274FD2F380D5294DE2B66B626B02DE109
S321101883946E74E3A3FE79A1E45E0BD52D6B609C606C6F69255CA00FFE1F28B2118D
S321101883B0084B25B9D94973D8999A677539B81CB89B1A8ECD4ABE8437B79E5C0E7F
S321101883CCC6D5E469B342B787F85F198A1C4822D05AF38281946F235F46E2FA8F76
S321101883E8F233FAE6CB31A36C8D6470C3AA7BE8E386C0E5D71C6679510A823E7F90
S321101884047D02514810EEDC8BC873D2421E150FDEA58AE5E7A2736F7BA10DCF8E3D
S32110188420F687ACEF1074A547C8154A3449F7396BDB99F5287D5498D4805E08B6E1
S3211018843C6D1E0E3F35D56D30543DB2B672B224ABA7B51A4EA42AD5B622A357331F
S321101884587CB6BC3D7A4913DD13B2D425F573BE93F1F6EA2A31492A9B52BAAE474A
S3211018847408356DEB1B5A5DF9C4F1EA622F7619E4315F90158D5F9653FAE305428D
S3211018849078359DD983FB4FD8FD0665F611300629A4DEB8B36AC0ED84E04A0683D1
S321101884AC79939D27ABAD65FBEACFED745E4E7037406B000AB73574D60C980D24D1
S321101884C81520D6F6498AA06EAB518A8382835EEB557E584BA5BC5C90134F4906BD
S321101884E4E467CB915D0BDA53C4DF4D8847260EDBA358F79637CF5BD3D43D31DA6C
S32110188500ECE5ED1350397F86A8C5311D53291D48EA0D01D6454FD3173530FE0D7A
S3211018851C865ECA29A0D51BF1A7D84C5D57BFEFA9CCC9F598059AFC3D61C5F5C111
S321101885388C230F56E541BD67D929605A1EEA18CE52F09253251E389744205B4DAC
S32110188554D76A2B084EDB66DD90A565787F28BFCF837A36CFAD46C31F78FC443EE9
S321101885701ABE71FC222DC558AB1D6F4260C39A7EA165EA4B2A239B2EEEBBA86258
S3211018858C385850DC2798B72F3CDB075A4D7FD57586E98AFCBC0C680B0271382CAF
S321101885A80E36882281ACA03D1752D976416E0A5F98979A892AA4A858B25371C764
S321101885C491628657BD36F8B0972B0B92774C3E73C747F1D35B010423A3F4CDD89E
S321101885E0B025C2B3941456AB0E9D984F2C78184B8022F2F9C1E6A8970495A2EA2D
S321101885FCD0250A8CDBCF6958EC0754F563F5AA4055FB31EA6A4C7E7645D555F944
S32110188618D0326F0D520DBCEDC77479F1F93A2D808CF339BF028A19284357F5C278
S321101886346203AD53593BC550E0CD032E94332CA80B5EDF4A144A13F03C5CBD012C
S3211018865027FA4B36BEDD6C6918CE2C09D3BE915F7D99DCD4687425688C57298A6D
S3211018866C1FAABBBE60CA0433A2D160FCDD1BD6D0313620FA045854403C6D7F50CB
S32110188688BC36F1F42C33F77C7763D5630D6A3C343EC4997502B1CD4FB13C87486B
S321101886A4A87AC3FA27D5412B2A2571DF6B4F3D6730200A4B0AF2077E6C01C129CB
S321101886C01FA2110123A00C06400B8AD643D3FB1F0C45F565FF86444A9865D466F8
S321101886DCC7E9F19F625CD96EA4E6F3ED45A10A9013D7E8971AA2A726FAD7B2A40C
S321101886F8859AF37F1BCB67F8B8630B5A4E3CB02243380F8961376BCD690244B440
S321101887143F141EE7FE007D1125BA4EF7080D50714587462B9F6645B55029998A65
S3211018873095FE5B1F8EDD1A7A20659DBA0E3BC6C183993F2B7D358F00C1FCF46E61
S3211018874CC8FBCADD52F825D456ECABC698FD60A65C4454C617245A508733FE6B26
S3211018876823CAD28A31C77B2B6393F761CA896A4A89050BC16F0037CAB1BC5834C8
S3211018878429847494C8206274E5B6CC2A9DD98227BA5D958CE6F5E06B32CEEB3B04
S321101887A0523B4110CBF99F4F0A43385A7382207164A7A35C092BB9FDC0AA8D505F
S321101887BCFBE499631731937C98EF7E0F27BE8907BCA76C55B7F3BE14460EFAC307
S321101887D80805FDABB8627938BE0A8FE2BC07126BE5EA8E77BBBE0D765742F729D5
S321101887F462D89BA1FC45374E4134C2F558DBBF75B210F03E2B4C7B6B318AF83537
S3211018881064EF5DE831B77E2B91A4ED2D6DCE691AE93C0CE443825665B78F42D9F2
S3211018882C91D6E52437985D2A4ECB84C93B390AC757A0E34223C102C41106F82E8E
S321101888487A6A91F85DD9758DE5154D645EAA54D77F4B3677E241A350FD0ED58C6A
S32110188864261EF474D3CA995E281F1D66E4A58B947C27FA69430DFE9AB5E990B14B
S32110188880C08C2A061FAFB40153C28C27FA177E5E831A0FA739E5E5759346E7DC93
S3211018889C1F99DE2CAAB76336D2602846843A9191EC4D1C3C350D75B7689B4C3CCC
S321101888B87B0730D4F1AB46E53741754B7B5047A6EACF9FE8DD05EDB78EAACB0F61
S321101888D4A3B8CCA25D765A10D170572309DD826F93462CB8052294B1680ED9E763
S321101888F054E42EE823215191C3A0AE2358E363C480762B29A9DCA6B57B93F637CF
S3211018890C6E738229F95942B4F3354624E41ADE1CA9E8B9B3C3515B7AF2429FB951
S321101889280C3E48A7E2AFF686DA870AAC0C774914D8B83860271755EA160EEBDC38
S3211018894443594791593A8AAA696C4A2B5AC4AC05882660AE2D45CBABE63F46E6A0
S321101889600F1EA8F7C7364F3F6B4C5483530E8AFED9F6A43CB1334C97A9F40C9848
S3211018897CA3E3F5DB01EBBA8A39218E0B3CC93D51CCE0FE064223F379F5600A4C79
S3211018899894A29261BD91CC8E0A81D3A3A0DC14AD803241025C917B3ECE2C598810
S321101889B4A6B2FB84B18F57794B857588F40689F6B4D6B41AF210F8FD2E7B5E2DC9
S321101889D0797AC00397701BA4E297090508A815F47D9C4C8302932C73222218DC4D
S321101889EC60957421480A98D8FA4A481FC8BBD83705CEDAD3D8816F3E3CE3C9AD9D
S32110188A087B09B876272E1D1EE39262DF6511C442FBA513C4FDA5A70B49AA0E5391
S32110188A24011F267EF6A218DDFA9B5F5F1B363D5EEC52862C99752197DFE1C1E061
S32110188A40D275E815D65BB9B5787F6ACEE9BF3602EA3FF742340CC71D2D2EB13F29
S32110188A5C9F9A6AC2C91386F08626702D046A94E08D663695536A4F199B39A5553D
S32110188A78CB9345423125E2AFD9210FF361AE6D1856A7EEF75C96144E899817F2F8
S32110188A940931BD2C615183038641D94F9AF45EDEE608A0AB249B6E489B4C58B0E7
S32110188AB0A09AF17D6964F14D97D196C56F5AC6B41CB28806D5996D7FE7F379E9D1
S32110188ACC4BFFD58B0924E4BD7E8BA4F6BC07F7A8B84C677834BABBB9DFB53EDAF2
S32110188AE8EB884508F747F6C76E81C8AB5F14A93F48890953FDDF034CE02F4E8394
S32110188B04645360E83813D57F9165354B2E78ACBED37024BCEC15B1FFB05F2D06ED
S32110188B205FAB0DC89D831230628F575A5B0E8C818B6602F758315F208EBC89AF3E
S32110188B3C9136BEF1DCDA08E8AD550181998ACD05B51D1504706F89C4306F37B9B4
S32110188B58B5F8AC6424F7497CE5057EB18649F47245D3C24277B70178B81B1C0135
S32110188B74A284C065D5CD097957156A4369B27CC3FB30CE2144C1973EFCBA4E5B82
S32110188B9096CE68CA0AE2A9839B3F1AC297195F95AAD9951E100F522FE4661B3028
S32110188BAC9A866911A1DAD1FC322DF6CC8B2E8A337F6E79FA1947F71525AB67C73C
S32110188BC8B60BD44E43030913648E618D7CB778ED79927EBC2146E7509CAB98AF35
S32110188BE497CE4979FC51CE98EF26C7BC7BAE9AE421339225FC5012A9DEA7049FF4
S32110188C0001930ADE1D1B344A5EF051C4234707EC6C81831E6844E34E15F1347023
S32110188C1CB3F2BBEAC39EFB31A16F4C9C522D2BF526CDB2FAD85092A13C128C17B5
S32110188C383EED6C9EAB0719A4DC513697BA66AADF03847F4C4C883420188B2D5C05
S32110188C5429981521EB73EC354C09799329C2F86DAEE2A6B19E2F8DF2357445ADE1
S32110188C70FC31FF348954AC4E475303D02AA6F9AC4B0D99D47BA19F95B3BD77FDA8
S32110188C8C9A0DCE68DAF402AC543516AB33FA31776C912104D29C5C2B1D55ADBA36
S32110188CA8BD47D5D0C047F41ECEC5E76EA8FB0420057C9B5C04A2B5F8746A637293
S32110188CC49F62131488F61434FDC3BF73FF64B5F101058C55F2AC5416F031183223
S32110188CE0DC4C21FA6165BEE3C4A0F4AF9DFA1E03E87E11E3617AAF96B09E761D86
S32110188CFC4E027CB886CD328F4F709F0131B518763CAC9B8ED18580EA7FD03294DD
S32110188D186DDDD1BCA6279CAD44226CD0E42FC387491190D3CF09F14DB62DEF522E
S32110188D3474D778A3B7513B919085DC341A395B695EE2DD753604A1D9EEA223ACDA
S32110188D50CA2F9D2AC8DF10C68A050BCEC9CD9FB5506D9D01337E169A58BA7CDC24
S32110188D6C4477301ACDC2A5ECC4CFD3C95B4E005BF24EDA1DD5B3843FE357CF904A
S32110188D88B89FECDE64D183B84DDB51A61CCD60D08E6CCC0C23704742E7591F008B
S32110188DA4EE3E74D9D45D076452AC58B5834AAEFB2B32694CE31D8D11D3ABB05DB4
S32110188DC0C857ECBDEE404959C1BAABA2534EB813F51FA24EE0559EF0895489145C
S32110188DDC45B0715FAB4FC6065AFAF1223C4007E6217E36BC868DD2837DA8966CD2
S32110188DF8A2ECD97C1BC2383206C706479E43ECDA65182B23FD3E8BE7BE96D74261
S32110188E14200BA4648E805BD2CB74E455448EADDC78C0D8BD89C600409ACE65DECC
S32110188E30C7EF370AE3B1B2DA4E2D3D56B7AEA6804C722B08F19C55B4395BBC7DF4
S32110188E4C8207D4A344890A2F17493CE3BF2A9692CDEFBF86AAE379A4E992E6A595
S32110188E680E52366C3923519074BBF8E7FE531C98D57301D591FE0076919C8FEAA5
S32110188E842668D9BD7399C486D363E1CB899E1A562AB093DB236B5501BDA91BBA4A
S32110188EA02ABE9212F6C358F2C510F113837AB92535F1C80B076E9BE38F27E22899
S32110188EBCEE649A92B63BB244FCE4972FB0DAC26BAEBD1BED05BF4F876F155D229A
S32110188ED8887889EE4361C45429C0AFDC5AE8DC143F11FE14B3C19A803C8C926DC0
S32110188EF4154199F3374386B4F5D761797D80A1FFEB47B34DC8E784D1701356BB91
S32110188F109ED9BB94EF62C35F474C7F24B0D119AC5AA2B8EF75E180003D635BA846
S32110188F2CB2907F3808B8C667993C8B88BE2C68A8B6B6850ACB0EF30D3874B59668
S32110188F48B3E47F901D72F7CD2F1181AF1353467BD643C121EE62CE36C7EE91E8D2
S32110188F6492F53756D87C29DCD7F1B98FF9D80C8E0B2210A6ED176EEC68D755FE08
S32110188F80E134910E8A8FAE571F9A3AD52271C594391E4F73656D3EA03CD1F8D380
S32110188F9CFEE07D2993D50A61596477F5338043F6F0F1275768B988D773D28B6808
S32110188FB84B5F882FFAFCD9A9A9139F5F53143AC364029434F9E850D6B98E149355
S32110188FD4EE25F8C1E8CA78BAE48D826639E6121E22BB1710678B5D2C7C07AE8BC0
S32110188FF05C0F3A8DD1D9B5CE203C8867083C4F2AD1285E313A9EC43C2442D946EB
S3211018900CE667DC88084819C3DACB724E43CBEB087B9841B43B5C0FD1190AB78EF0
S321101890282678A81BB2A0BC16E60C828A534075D092EE2A3ABEBFEC148E8F1F26E0
S321101890444BAFEBFFBA239DE14D7C27946DD684C9AAC78126409DCC948AFC29305B
S321101890602017089823BA03E4D609DA44A1379583B56C88CF77B1537BFBB72B7D76
S3211018907CC719278921FE1C5FFB2FB9DB60639DF2E0C26989064241CEC9B995AFBF
S321101890986921DD4FD8E475B33C4C5C97383180D7CD0FF836E83EA45CC944FCC8B8
S321101890B49B1FC190440500B34D8E58F89CE656B53F5B5101C6E23B2C7C9B40342D
S321101890D07A20FB07E9177C94C16AE0097B643268BC8FB2C655F83B2BA8AEE0E78A
S321101890EC28B76FBCF212BC754132E48A0A9269E9F2D11F5D6BBFF1FA01E34C2187
S321101891088EA371F73CD128CC23FE45024A2668BF0EBD2E97E388E01A3D5094ABC3
S321101891241AD823135D5A89B9C0245CC9D4AE8D72A15694C9A4B0B1B3483908526F
S32110189140B27FDA032465CC1132DF79EE2E4D9FC005102D6CB79D4F3D79F397F29C
S3211018915C1B6984AEA5A8EAA32A7E18B0146DEF2F65B3DB3D22027969022E00E9DB
S32110189178724742E6CC3B9266C8A7640456E845ED3EC94E9E5334EED206F45F8B68
S321101891943D43045AD219C0792A37FA73EFD19936555C53A0F4A1D99CBAEC0337A4
S321101891B060B23376EEF7C644678FEE0ED42510B3EFB74F05CF92B995E039EB0C64
S321101891CC94665A10DD1D3301063DAD4DCF17D8F7B1131644507F3B6C7400BB0B07
S321101891E8B550D0B0F980C563645F97C9F26FD291837D4CCCA195D7F6DDF3C6522D
S321101892042BD508B8144789A6EBD4244CFF469A4EAA09C02436278FBFDE3F854155
S3211018922076842896FA5EF37B7EFD258D96F01377986AC260EBD1642B83467A7225
S3211018923C2870E1F3A2F7108E7C97BAC1BF715ED1985893049324C0F32D8DB1C03C
S321101892583CBFC65078D4280EAB4420FC0DF430FF856586D4EC099AA31F814D2873
S321101892746877732802966757D1BCE4E7C6FB91D830E0001638A0B876D051D5EA52
S321101892909B077C8F1EC66792707F3E019FE74E89584A0AC0D36C191448FA7B09E1
S321101892AC65656C9D2184DCE0BF9E855D9AFCD0ADF972FACF554F9D8CC1C87E6288
S321101892C8892B3E18140B3DC18BA606A3898BB7E8C6028EFE075733AA4E53D7ADF4
S321101892E421D2E0F302809FD6A995138B5089B240EF7A5FC018EBC226C4F2A5C945
S3211018930005BB83AA50AC4EF3118B6FA006C7022F6058920CCA55BAABB8DFA4C576
S3211018931CF427C947ED99B9B4E5308E47C7024356EB8F53E9C0D14182BA8F62CF19
S321101893381ED35B2C746E75696D426CD1C31C29FA01CCB46E5BF965B6FCD11890F2
S321101893545D8AD8B7148745A00523394A0F3D40BE6C4D357D70034B6B42E5C03633
S32110189370C698C0C5457AE0596D9F6335949D236EC922D69D7AD75CB771C62264F3
S3211018938C1EF03B81749B723CAE46A99BE249AB0C281A96D8C01D3FC087BA0A1B04
S321101893A8C534DC07934512FD69FFDAF28AF13C9EBD50A50A6D706C3098007C25C1
S321101893C443F3AD70C29D03D23E7930D2C6CA13591D50B2DB95D9D00CCFAE66E814
S321101893E0E816FD01A7B4B2ACEE5FAA6E079A4671CA13BF2D818B23C3E1C2E92466
S321101893FCEDC52E417232BD09CBD6C6CB066C6029F655C78D40955DA6914A76A106
S321101894182844B94FACADCD1E61195848ED7F21318D133B1FDBF7A5EAC06992D88C
S32110189434183A47157881FFCAACA19FF4EE0F318B7D34361872A386C524364C6977
S32110189450B046ED98519DF6B1B90D50322DF2894863EB984A3D77B011F07886ED0A
S3211018946C924E0A85AC9D37D0DB56F461FC88761D7146B4CAF9149F41EA06AB6A33
S32110189488F4570EFEFA53E2EC596BB0107C37E9A17732DA7CCFF94BFE19DAB9AB00
S321101894A40343F1865FBD4F86D069E8018D9122196EC59369DE234F399D454BEE82
S321101894C07C19E94E8746F88E2349190F055C3F0C3639B53EEF678303541FFF76DD
S321101894DC59EE9CF95FD3E64478E94CAE239190B2AE5A372868EA0B67FD17E49802
S321101894F8A201E5EE05C8950BE9B95DDAF9FA087ED505E5C51D1B01C100FFB3DCE9
S3211018951413983A1DCCECFB5FA593BEDD25B909080D348CDF505E7D79F493C9F3A4
S32110189530DB65A14C1D10C4A4A677E1D46B7E1D0613F121AB48F32C15A4E78FC229
S3211018954C265B6C4E97735EE0125617622E56863FA2D42890DB836CE2540673D6AB
S32110189568585206E638588C4158297D25AAAA630214E8446376DA82AF602174E3EE
S321101895849117057214E97B7300F56EF6184EBA6FAF1FE8B96EE1941E1DCFB17D21
S321101895A0E7BED584C758254A7D4D70334C3DC9B7925BDE7A664466C41A87F64D82
S321101895BC114D443163FEB48C502420430C8E33E0DEE78310F311ECF1131C571E90
S321101895D8F165D01A33D2D1330BDE1306675CBE4D70C2B6C8D70A8A0C7AF88928E6
S321101895F404219318D363828E7F06778B938FCB39328A68DE761C58B99DE3810EB6
S32110189610189B442E22B783CBB3DD48472AAEA76393B94BE55C61451244475E1832
S3211018962CFFB68E11FD02B348162E1BA4A416796C6B0E4B5ED849B52D039ED0C2AC
S32110189648A7BF39325224C936F05CE907F8A73240615C37F88CB8C734BE955E2742
S3211018966432A5085C54A80B301D85B81817087ADE1DFEA1303EDE8F9C35F3EF71A6
S3211018968075310CB9557103DFACF55DF8F1BE44B4FFFFFDFF1740953B6EA820B2E7
S3211018969C87F308F638745682D2166BCE514661B84E62CE5DF57F75C3148516047D
S321101896B8B788658CD6C8017F7F56D3A405F3F5DD93E6E15FEBD335FCA00B88AB7E
S321101896D4E45B79F5A685B5016446DF6D66FAC752CB1F1273221BB8BAFBA62697D3
S321101896F0D36C826690977F97ED38DBABB95CB2B04944126490A438E5A313C0A53B
S3211018970CDF7D9FEBA85595835873CA49D3AC8F93E649D13E23758BACCE21BBF4EE
S321101897288895A60F542D2CCD6A4A0B5319AE5A44C62B9481582A942C0B0BD614EC
S3211018974443A8950C4E077F932E15804F70E193A615D93F19915D5AA41E9D5E7B86
S32110189760E36FB5CD390E5554DF7429CBC3E4474D9EBC92D0D5F9E3579A419DA994
S3211018977C45671F4E7F91BA492E2469595131CAC742AC3F17177AE80E1F0961F804
S321101897987FC1A5454543B1124929A411F6CFC28F67A1036624493C2E94094A198D
S321101897B488F46476237E83F0FB157561F7DBF40A198227C12B08BEAFD9E379CF24
S321101897D07760900FDB4EE081042F7FA167119742A9217797C5CF07C83C84AE51B1
S321101897EC9FA993A59762CC2F85926519396B6C3E9A33431FDA7C95B05F7D79B409
S32110189808CE88FD2194C2AB938BD427F7BE6A3358D47B3F0D08A0B2B295096E7DAE
S3211018982416421BE3326C41155DB9C0BBA97D288BD94A557ED6CCAD156CC2288D09
S32110189840F291E7EEE4121EEA86ACC5BE2D4F532235D5B072C6E4E4FC2AC8EC85C9
S3211018985C9F4D127F81C1E5E753BA36706B0CB653435B99302DC485A6B88E9C3B64
S32110189878A05304A2E30A540D0D6DEE9958A46BFD7D5296E2D29EA5DDC586DC37C3
S32110189894557563AE936544A6C5CD80E2DAE37B4E8BA9CE89A9DB187BA2F42BD31D
S321101898B0CE968F9D01BFA21D620150C69663EE13B42F2A997C6F4B260AA4E64B0B
S321101898CC54E2B74CF7AA66A66C76BFD3E43475558929886B59668EBA7FD213A95D
S321101898E87816B2F786AA2C69DEAFED9D5BC216C935279C1E3C1EE0EB2B027954F2
S32110189904F3195F1FB002EF4DBD4B410674ADA8C7CACDD2FBBF024CF7C7761A37CC
S321101899208563158C47517411BE57144FAD922DC9BCCE1D362DE2FA1A321C0A78DA
S3211018993C86B8DD2F2B2EDF68239CA887ECEA633EDE1FE13020FACBD0607D4DCCD9
S3211018995849B7DCDEE269136A0466D9823D2F5832C71377DEB03B821F8114BFAACF
S32110189974B0014DB943D60252E63C9A2CB5637BB3307C22C7CECB7BCAA49379D262
S32110189990FA39984F0DE67540F14BC99ACE5E69B6CC0C38ACFA97D41BA188CBA809
S321101899AC21F836CA793D585D199B3473A7A8DD8EAEF36364C5A6F0070C0E678FFE
S321101899C8546EBB08488402B720C43FC30D55DBE5FB9819294A91BE57E21939F159
S321101899E4A6568580EF4228F8BA85827F7422053E0BEDD2737C456005A10B78380F
S32110189A00C6F49E3C2362EBAA704DB0376ACE0733B9E6F6DDAE61F1F75DC68996AD
S32110189A1C1A33A3E1319371AAF7A4DC3156418E8627A8551C330A7E8DC9F8D0855F
S32110189A38709DBE8F127877DE9917188E0981FF7C14AF891E6956D3477496D80526
S32110189A546753F5EDA437BE4BB1993EEAF47B727980F0F2A1EC7523C5D065B464E3
S32110189A70E0B79BBAF53B9CFB057D617F9B2190967438E61A80AD7C8E913F406959
S32110189A8C7D9F439146FDC90580E6B8E533BAFCDCEE110E6CB00BBC39FD7FD6B795
S32110189AA8F5FC8BD4E592DA501511B38C6EF41AAABB93159803F7FE700990B71B2A
S32110189AC48EC1D431B5FA308A3E8A6ED6616796CA81F9BED679E1116DBBC7870177
S32110189AE0AA9D5EFC732CB128156FE3FC40BFFAED53A1C39A389A38A5467E13E81B
S32110189AFC918EC5C7F4F8A5CE62628C4ACC76C6CCE6BC6F9CEE59A15563DB6B19FC
S32110189B18633E0CDFE3C6CF6CEB10EDCEEB0F4670F9AEAB6F9EFDBBBC313850574A
S32110189B346BB23D16C34CF4F262D562CBC0FB08241ECB8FDD59E1F6EA0E5CF686E2
S32110189B50CE44B9C8F7E9ECB58E925953DE713EC3194943A02C4AFABF804F5F26D3
S32110189B6C8B55B8637E5D7FA839A028D7192908D2BC5E7921D2AC4A72BA9B6B7C94
S32110189B88421C10CCE44FC21A0C18A30ACA908CF437DB95F819558E859F704E6FB3
S32110189BA40FDCAAF640DB46E73BC55E9BB4365D371034361094E34A03DE424EF879
S32110189BC077AB5560E7FA33FD92E705A431C818DE74E886BCAA1EA25A000DD256CB
S32110189BDC39F59851FCAC09B96EEB552926A3FD6F417D1DFF753280618C27C8C70E
S32110189BF86A862C8D15049CAE625853A3E05D31818F650252B33EE0DB8AD784029D
S32110189C1476A2A155136B9470E8A39D69AFFF2567CB34B77B3DCE3D4A1B6F395FC6
S32110189C30982003E1C416E6B2757823C108BE6DF53E0D4DDCBBBA5327FB9196A2BC
S32110189C4C6934B9DE883B5698EB3199B3A6F6AB1928584034F082A1B4315EF91AC4
S32110189C68B2AA0C7EA16A9DD133FDB06246508472F654943E5087C42033CBE8F7D1
S32110189C8416F186C9FE761433284ED15EEC41DB858B1751D9B6662A052EDA1EF71F
S32110189CA098F2345C17A0B7087FE8583BEC0F1E470D3166D05DD325D48D7CB983AE
S32110189CBC316C795E0476F36D0E46F788C6F58A249FC0C761564627C474BA4D96B5
S32110189CD8F1C9CFBCC83C68AC5EFDAA2B6A2DE6345E9A58F7E650E0404AEF5E5F71
S32110189CF419F048F9BEAAA013418EC44FED3FA914A56C6B341102355834C2C6FAF0
S32110189D103221BA16AD13647E22266E6288FE20EE0C9A5FC54576E507C723FCBF82
S32110189D2CA330E891144E73F34B2683AF8A17AC706F3509D5AA3131B16646B037A7
S32110189D48E9FC5949844BBE931289DEB7782AE5FC2A85E7D563FC73E2D16D018099
S32110189D649365B33720E505DBD3DB0EDC54E04B517727F58637703F82E435561A7C
S32110189D80AF1F5DD3FF1641DD9C359F96411E2F0FC5AD97D2F1D85BD2AD22479B43
S32110189D9C8AC4F87621B38A35174CAFD5EF543A4498A48B74BC5ABB518106C2FFE1
S32110189DB8E1907BC0BFCAB0ADA4136A979F392BA54C987086B78435B1A14F94F9F7
S32110189DD48D95ED5D399B598135580471873F0856FF86A8C39BAADE549D5145BBB0
S32110189DF0A92D99CED1FC36E6E929AE14C4B41657592A724BBA0F45865C356EED8A
S32110189E0CFE912D6F1901E25A59A2316BA8A58625DF39C9E4DD9CCFAB64D4B954FF
S32110189E28ABBB7B121F017A7B821905D6200A38E3ABD897438DA649B161FAFCDE6E
S32110189E4491F2F03602E2D80FF9429847B70A65A4718F62054F4B41BB690EBFE861
S32110189E6039B5D89C75EF60B10E0737CE08BE4DB36A2556C788D864C07118319681
S32110189E7C4390D747C3CFC63D370CFF0A1B3AEAB64599C60C0DA310F2C80D7BE63D
S32110189E98A8A308237BF7AB0095D72D9C3054D050A760AF12129883193F52434EE4
S32110189EB4895B314E10B4ED059F3CD85AAE4FB79ADE044BD8D7EBB96C637C4B8357
S32110189ED099FFBB303B938177BCF8A1FECEEBE068EA3805193179EFC6E6DB5E38B5
S32110189EEC4F72FE5F36C290772C435F9AFC9C347B93C76213B0BB5C72F9145418DF
S32110189F0802BF7F42E2B287E7D358CB4FDF7EF4BF43BBD9D3434FA608960077BB84
S32110189F24656A537AD8BF0CC5190DE94ED1DF13D35558F8B8680DC9B10B6CB9C3BD
S32110189F4039C4D16F427CD82140560709765D788AC26C9D1784630A3BDCC300BFFC
S32110189F5CC3FAF256D1620D213C6A0429C12DDADBFACB009930B2039476CF592842
S32110189F7880176833FC616F16429993189078D71EDD874CB974C9F1AAB62015F7E5
S32110189F9434A8ADC850B8AEDFCD1E0E133DDBEF85E98981D8400CEA0A9E767395DE
S32110189FB071BDC48F808E3AE5D1C7A3972B804E28F359B8D14519B1C11E7BF6048E
S32110189FCC21DD4789CA3D1AA8AE0B3DAF533FA0BE0428C567F4AC820A044E563EB5
S32110189FE8A4A0570E62B4369AED8C7239E0BA9626D0A715B5F43D24F15F6891BD8A
S3211018A004EA61FCB018D2EBBB59CCDCF0C64FE22FDF2294B37D9B4ED09691337F1D
S3211018A02008765DD7AB15DCB2572DCB1A5E6C71A1B894559932787B5FAC3DB7D083
S3211018A03C6007FA48AFAE8753B9FC6BCBDA66A0D65242F8D55F97C39FC952165B14
S3211018A058A3DA293D2B163248C6C592E26E69E9BFA8C25511503D014B690A48340A
S3211018A07441F797FB253A50222678FF0285F9C0CB8F188F121DA293DF46F797A76B
S3211018A090747CB48983DA7D062E74525E4454578466265E4A671EA2891A2D9108F0
S3211018A0ACE9348497842155ACBA192FB2F372F926DB232947692E09A3A8DD945A30
S3211018A0C8A05DB012FFD2752DB906761C6B9B40D9324D0E8191511BD57C5E6EB6CE
S3211018A0E4C55BC906A64C116131AB42EB06C43546698D2C166A4CAF5B8045B7908D
S3211018A1005237201AAD7EDBA5B8DF0609C68A328E7855BEEAA711E3D017C0356F96
S3211018A11C8DBC8362487D6F82258480E7E8E03BC7DB27B3BFE9B01EF651A9DCCE76
S3211018A138C17904627E78EA8881A07AE06B37ACECD3A5CE4AECA28898DA58747AC2
S3211018A1549CECBF9B2A6FE7E1118630A59432F86A57D7781411169AA2CA03CE979B
S3211018A1703068B4797B9CDBA69BFBA1296E3A48AF5A1DD426970955F5755BD34407
S3211018A18C8DBBFA9B3972AFD55FC5447D0453763F762D30A3FBF5BE1A0E86DC8F4F
S3211018A1A8216CCD043B6CBB051B579E11906B285D46CD29D9A83C0F0EFCA59C6351
S3211018A1C442821A50FE01D85B88453B7981C5E4FF84B2CC1FA95FAE608B91646C24
S3211018A1E06E748975C20B1716B09FA1231D4909DB4124DFDAE4B33321FA0DC50C1D
S3211018A1FC5FC23691CEF73845D44270AEE6070ECEDC796814EFAA229B1AFB944AD8
S3211018A2181EC50C9DF5E0509E8EDC9AA386D61B314BFAD62B70E3D5CB2A8EF97103
S3211018A23430A4B29E68CA2EE59FB377A30FCFB2966C2BD2E3AF765CA002CCDC10BE
S3211018A2501E74D1ACB7EA125C394C4BBBC28575F2F72F360B3C21E137D37D8DAE06
S3211018A26C7AF9EFF53ECF0E454408167941243F17356ECB630C57CAE341F8360605
S3211018A2887F92E6F58D684375F1FCBA7673942F08F69D09F9E07F14C4275BDB5817
S3211018A2A4B3AAD74511D739F3F06FF7D3325666164164A6977266F0A24D82815DBD
S3211018A2C004B52CD0B79C275CA6439459A8AAA37F0B23C5333DF12DEE5503290D82
S3211018A2DC6243AD92CED995A8E720A89BC0DCA29F31789B1CFA0A3FE018A9767B14
S3211018A2F8ABCE5BB8025543935997B13D9C6E66C732ED623F96CC9946B6B1707600
S3211018A3145B1EF4A2EC48126657169EF419395CBB12AE0FAD65429812F0B276CC2B
S3211018A330A6540803921B384730DDE8A3D9791908558A21A88F079393FDC1DCD8D1
S3211018A34C898AA62D234EFAC4EA0D268F4580DE864493E3F52BBC6BA031813576DF
S3211018A36889E4AC2465298FB477CE5860315372EC1A6E12C96AF733B7F7EE2F609C
S3211018A384D574A0A5E24B81CF4DB584C1A35210A2384C1D1C4E7BC4F3CD764D17B2
S3211018A3A06F60FE576683FD25094137FBD4C52C5E55C6E98D4CB8B1B3DAFDD629D6
S3211018A3BC8F93197EECDCEF4B7726AAE9DDDFDC44D359DE751E24EB6B5D841188FF
S3211018A3D866B8C4D0C9D094628E97A127AB1DE36C04683E95280D6CC686C82BFCDB
S3211018A3F4425BB5CCC3513A03AE950A607B6C5790153961C6977727B254141690CB
S3211018A4109C16BE37F3F5D072F3ABEC33649C9CED2D693929CFEDCE193F84020883
S3211018A42CB5E41EDB8FFC1586CCA0144405A3926056AF7C94E3A3953576ECBD92BA
S3211018A448B86D3DCB537CC0120347C7C4FB30DF5D8C086B67A272392B622626B97B
S3211018A4643D815E2A5B46FC7A1B7ECE42D450FADC0C51744CB83534E1A538AC4EB8
S3211018A480E3613CD1102801F445561C6B59F2CED3B2E37F85E0729706048E70CBB1
S3211018A49C160A0E445048B7CE6692DF1538EB0E8AF908586C29C28E9E1E1187CBE3
S3211018A4B8DC613E155DF3108CA86B13695BC91657A34A04A48081C6D9B4FB01F4E5
S3211018A4D4D26BACD0CEFF9C624C2C4F95CD23C2D19B6C7487F44028D6398A276558
S3211018A4F0C7BE84F377775DC21A4A2A400C584AD7F844FC89394C960F5E60CD3719
S3211018A50C81B661DD25AEB15E22771AD4735E3266EF1DE7DFB911468C2DC324A399
S3211018A5288AF9E1BA094B665FECD1392A44B8C0B66F1089CE849F7AABFF0DBF44F3
S3211018A5441ED34CF6F138F0382C9B6DF08BC7791004B63E410BB2F595F5E2D90218
S3211018A560D07B51F1B6992863D109D4ED3937CCF65FF801120B4514C7343ECF3E69
S3211018A57CA3AB4C5EF56F3EB51005D8595ED19150DE48E95F6E0EB74A21F6B684B4
S3211018A598497FCB67478C1FDB0259A5C5F0974408AA9CF91F7CE5C1412A756CC985
S3211018A5B4F29B5C3D5A3F1505289A3B26A6A6B912479526696058B66937EECCA374
S3211018A5D057DDE87E9C83078FB79E1D25DA7AE926254665813BC00DD0E5FEDB1EF3
S3211018A5EC25EF3F704B10DB5ADCEA2315715EBBDCCFD581B9F73C50CC484166F45E
S3211018A60835D0728CF29287770E38CE5B47CE283F5BB134833966E1D1C45634F83E
S3211018A6242636094323CD3D0CBE11DE736AD2FC81B6FC75E655080624E57D3BA55C
S3211018A6408324F1CF9612D7F944AAB04B8EC977D66AB6A4230EAEE367D59DCFF73F
S3211018A65CC098359DA7645DAD8B83232555091438A0376080569819C9B7661BD4E2
S3211018A6789321192AF36CF2798AF98154FFABAF37F0C820528AC4F13C56C04B32B7
S3211018A694C174AC8EF53E0B0CDEA2B2544DB29BAA330B517D765661433CEACA7E0F
S3211018A6B0DF6BF2181B6FE79CB45377239B0CFCC7724A228949A996F6CFABDDE0D8
S3211018A6CCE895A1329586C12E2BCFECDFD6101DC1BE34877B7ABEFCABE91044CE83
S3211018A6E8D0102497B95570BF9EFCC2C01EF4108C0C9602C4AD6A516708E777AB3E
S3211018A704A25D9A102F1CE2CB92A26351D7DEB79224153631F58899DC9E505BAFFA
S3211018A720078E67382F9810BE6EB2C135D646240E59436998A582B2B00B3CE4A9C8
S3211018A73C9CD50EF867B6AD265AB3B83D690EF835E040EEC88E635F39BF477B6581
S3211018A7581AC77E0F2741EAE9D440F20195266A4088C140CD6C4016339B6D627875
S3211018A7741FFFAEC230F3A6F03C03EB7867A5EA39A9E4BB14B2BCBEAF8188306FA4
S3211018A790DCD4D857DE75ACA4677053137BBF28392E40DB7C9E835B7226ACCCB123
S3211018A7ACC7DFEDBFDC02226A60A91996B91597053BCCBD510ABBB77957EAFD5AE3
S3211018A7C8EE661B4B7F21A0F604A6BD7E5AFBEC309487B474F8360DD83AB766E56F
S3211018A7E468230FA55D9C212E3CB43670E03494D1792CE26B3B27A27B1B643E70F7
S3211018A800888E4A0B9B0DB4E40DFE233F3CB41C99E4C9488346F977A87F0F69C1C3
S3211018A81CC3C4F14ACAE8D6B22AD21DA725ABD0F3285ACB01EE2F0EB7D386E2DE5A
S3211018A8380A1526B20F01024ED031F9962F497F6A1DA9E94D187A41EFE9BBE6FC4A
S3211018A854365CDFFCF1C711684E17141B1B0919C877E8F2BB5D67973FDE9DE73D3E
S3211018A870019313DF766465DB04ADE828C5D7263AB2F9AC8F897B9501E47FD14C41
S3211018A88C537FF188DA4EE89F897C27868304493385123F36FD5182A794FFDCD70A
S3211018A8A83156556F42AF2D451FF6214E54CC90F36AF40E4C2F29C7ADB6F9AD9A17
S3211018A8C482B1F3C728F4017C79E6709678275BF328BF464A4BB3CBE2739F635982
S3211018A8E07E95036F92A318AFD215C91882109D552C70C71EBB4E6ECA2071CC9EA4
S3211018A8FC5F2CC2154C9A245CD73BB7562ED7523163B0E6F544611B2F284A455DB2
S3211018A9180C716B71F0B7A1BE5E11C7324B4A5258B8F02578EBFC46A6A552C50B10
S3211018A934DC68DA7827EE58A19B69EAF3B1FAA742E78B149D54B1BDA84288C8D6CB
S3211018A950FED00589A91868D3D5B6C3B58CFC96A19EDFDE9EE924955DE535640D20
S3211018A96CEBFE1132F84EDB6010A36196C2DB0EF9C202A120F4B565ADA3D368A2E6
S3211018A98888E60DA11B085FEF2604F9312D038B3466665C33BD607FC22D1CBE3BBA
S3211018A9A4BD789446A291DCA64F6EBB31F356613059E673D2A0CB39341CACEBEF24
S3211018A9C0856C70DF4EF51912CA4AE29C44C4AA040E7544FC4A554FA2FC5D351462
S3211018A9DC369FC9145BD0A595FFFCB58DC6EF92B6A9AD80777C9193BADAAA64A4AD
S3211018A9F8D550BB018CE52141536896C679CAA9DEBFC19F7879D74B306B64ED2B37
S3211018AA14789D1B7E721AB7F7FAF5B11F35D87E1CC983C58619062919128C65139C
S3211018AA30844273340F41CB2BCDF07BBD5028419F1C6F60C311D1D0693BED891D45
S3211018AA4C8075F6871DAEEC51858C09FFF20E1C80F047CDF2D7D31084A529C3C408
S3211018AA68F314285CC54B982D18FE771B0F5C4EADE450FA5BDECB79AEED7768E22F
S3211018AA842E7CC85B3DA47D6616BCB432322C3C31EE1D770A930695A19D7B636935
S3211018AAA06C772ED021F6E3C73D3ECF6420EA71FB074279B6EF522F8C0A88EC8B29
S3211018AABC88F04977D2C1DBD10C89DBD4DC4DC539C95C56F11AAB78D4C774675CF3
S3211018AAD8DC569E20EB7303E4EE053C605112D46AFABA3D104854B5B57FE388D707
S3211018AAF41B90D59FC85A51AB0349798A9104F098942F14B91B263B920A9554BB23
S3211018AB102123FE04E28B828CF7EBB284580EEDCD442C15989ADE9B8DC71AB804A8
S3211018AB2C875B4F74067A63177AF8FE22AD18C306DB6FABD381D44E2F8875FC424B
S3211018AB48B68EEB61CBC4B46CEE280F587D1DCC398AB24C2E4E44A0DDB4F5AE8BC1
S3211018AB64B8567D38871DB694306570BA853DBDE1045510A3331CF13C1A10FDFE2A
S3211018AB8062FBA939B45B4345E2E43CB5EE01FFAC76000714F8D24E88E5141E809C
S3211018AB9C46267AA2270F68059029C6987F8AAC21832EDE3E6C12ACB943C3F85E4B
S3211018ABB881448452689A8F362E710A490F82FB53C53D215511486420B913B4FE4D
S3211018ABD4953405744B16C93F2D3B17CCAB6E92968B14125C50F809A806CE66863A
S3211018ABF0A7D3D6F7FAB4DF07404F561469FD3F71791351D3F5654A5F268B780C49
S3211018AC0CF90D6F67368887BE11168B798136EA888A8BD61387765C5929A0E86CFE
S3211018AC2831B8C0E33DB6761C4D5408B091F61C35B37538AEC4CFEEF127B5E62A34
S3211018AC44DE1EDE0BB7BB84C9B007D591E8F2FCC940245E8EA20D47CE88081C1294
S3211018AC60F27ACACBE3BE2C848B8118A0FD55679AFE9524B6600DD378F36B8981B4
S3211018AC7C52D4500BD5A26D048BB604B887FBE9FF0F76279CF0D6FE767406B6CE3E
S3211018AC9800569E784A3434C781C6856230B832C1127D37AE8411317E0DC89F7BDD
S3211018ACB48F8763945A6D4E1BF3DEE488353C261351D81A4FF69C7D5A766A379987
S3211018ACD0B80D6E317F99034CBACDEC9BCD54E176D4382EAFE913152E48BB847AC0
S3211018ACECD994386BC8A6A114D22045521B3B3A7C4E3DCC06F0614EE2E53F6829C3
S3211018AD08755B991A785DBF217A93E9413CD912C4ABD5D5DD3DBEC6A2FD88DF1F8F
S3211018AD244C5A2BFC7192A5439071434506F596EDE35E3D20CB80AEAD5481631595
S3211018AD40C7A492E0BE7E01F72CA9EF4D6DA543995AA2003CF8FC1F2C600D91DB69
S3211018AD5CD690B82E4250D348481CCFADF3853FAC7F3CAEF8ED2ACB1BFDA9AE6659
S3211018AD78657D7D8BFCECA85775E798E737CD86AB273FFAA346008190CF363FA86A
S3211018AD9469BEBA03AD821B784858F64079EA3A9029DF6EAF082661E82AB5AE9B08
S3211018ADB035509293308650AEA130195F9465B38A85A872CE95FE456E51DE0AE1AF
S3211018ADCC70FB71037EF9BC617D84136342FD5078BC92889C3BE26686EEC602FB20
S3211018ADE88B6A80A2E22EDD6F26E3375B45BEBBF85643D4BCDDF4BF25363001A375
S3211018AE042D70A8488F00337352464DE8890109A97614D59AA100EB4E11AB243056
S3211018AE20C5A9E805FCC80FCCA1C06F0A0035FE60D81D0C57A89F37733BB4B7335F
S3211018AE3C8505BD19680CA7392579BD671AA55AD34C2A33D0104F874B4B2B835176
S3211018AE580992373D852256A4F10E3A51A268782885A943A651A77401F3D17D12F5
S3211018AE74D339BEAED927104688A4AD9040A5377FE7D010C309B5EFAB2E14A1B24B
S3211018AE90537A3E613306C78AB25C3DCCD7D89B00E8AD0838EBC098F4FD2C5D652A
S3211018AEACB79CF638E689363A54C8886F273EB427196246E11AAAB0A440081CB2D9
S3211018AEC8C326D96612AC6112F1570D0EC99C3C29EB705802DF54F132FAF58292AC
S3211018AEE4A7B4231B85F9DE1C63584A3B1D75C9551823C69D6A7EFF28A43CDEF0C8
S3211018AF00D6CAE36017B0B79F0026B99F63DD86FD221E4FF141536728FF23A165FB
S3211018AF1C60FD0560196E1973179AAA0CEFC0FB392A3820F5EE1C58C0FA5E9B51EF
S3211018AF387C278B6119485945CA038401243ADD0F64587B5B73496778702779DF89
S3211018AF54662A1E77057733A9060788E57FF054FAC85094E6E8AA5CC65D3A759B12
S3211018AF7045B94A4F5CAACE06BC17928A82193062F6780CDCDD5A70AA6E6390867C
S3211018AF8C66891BDCACC284BA231A0B1FDC4F751D96991C91B7D6AF26A9A83839C5
S3211018AFA8CFA5CD72F9D2C5C1B407D22F03F72B248C39D4A93E485A039B344CCF47
S3211018AFC45EA8F400D199D0F3D982865068F9F03338BE0D49CAD96C14E4BEB31C87
S3211018AFE0A35EC7EE268624C1B4BFE87385CB2BCD241057596A377405FE5F5CD43F
S3211018AFFCFFB111DFAC42F3324D9655CC096E711813E33E1A22437D25D594A113E2
S3211018B018BAF261D0D47DFD52D5967AB7918A3BF18D907E8A0E0315D5FA60444987
S3211018B0347E602C54AF45B3210A42184D8A92555EF0442FD0575DF07B5BE0FA6243
S3211018B050EBFE95CFC47C9BD459B028E0ABFBAD0CF33285F9E067C69005A9927654
S3211018B06C9CFD3CA7BC69B03390B05EC3985C92AD5BB7C04EB5D3955C699B337141
S3211018B088F82394AB86C3808EF89CC36E44AA865F1E4CA5C4FB0D385928684A9D52
S3211018B0A4E9E10E49EC615862578C61683A6D7B3AD494033EED88B611D953E499A4
S3211018B0C063384C17884F288A4DF507FE28A0CCFCDEC51B96BE36457D59ED40E177
S3211018B0DCF6A874673EE6AA50D856BE3C11BCC3BE6E096B7426695F71AEEFB9CB47
S3211018B0F8F489611A33619A3A4909519E087D54EBD3CD457FC3907B256D60094C30
S3211018B114E20FFB5552B244ED4B85E69DA3D36C9A802A2175CA71DA705D842A9745
S3211018B130F43B10B412D242E21C832D97B869847F16C0708698E472D941FEA18E52
S3211018B14CDF9C249D27CC816692632127139D7EBFBBD6E410473859BE557A187304
S3211018B1681F2A34F3A1953B0A1975F4416A2FB44F944706977B45EBEA482C42F799
S3211018B18450F95A7AAEC4659B1F677106086A8D2E15CEBD4313D51E7D8DFAE2BD3C
S3211018B1A0C4FD9B30567264C3EC0CD94DCB34B48A0BEEA0A5856330BEC9670FC379
S3211018B1BC6E7D16DC65C904803BA7EF183BEB1D4F81AB60182A8F40B4895E607D2A
S3211018B1D823507E23AAF3DABED456B0B35C27851A8DFB02EB09ADCF6931FD9A66A4
S3211018B1F4CC3D765E14F68F9270C190B0726AC374FCB09305757AA869367C9929CD
S3211018B210035FC4B67B3B1D6EE42B0A95C64B59FEE94B5B757EB5C0B4E1FA47B440
